:020000040000FA
:020000000029D5
:08000800AE00030E8301AF00FE
:100010000A08B0008A010C28200803191B28A20B2B
:100020001B282008A200231B19283230A300A80790
:100030001B280030A300240803192A28A60B2A280D
:100040002408A600271B28283230A700A8072A2842
:100050000030A70028089500A8012E2830088A0043
:0A0060002F0E8300AE0E2E0E0900D5
:100200008316FF308500003086008C14C8309200C1
:10021000121583128B170B1707309F000C309700B5
:10022000003095000230AD003830A000A301A201DB
:10023000013086001A290030AC000030AA00FF30DF
:10024000AB00013086000508031D28214321142935
:10025000AB05AB183B21AA0A2B193B21AA0AAB1903
:100260003B21AA0A2B1A3B21AA0AAB1A3B21AA0A54
:100270002B1B3B21080020302C07AC0A8400800196
:100280002A0880000800AA012D082C02031D3B212A
:02029000080064
:02400E00183D5B
:00000001FF
